:1000000035C1000062C1000060C100005EC1000097
:100010005CC100005AC1000058C1000056C1000078
:1000200054C1000052C1000050C100004EC1000088
:100030004CC100004AC1000048C1000046C1000098
:1000400044C1000042C1000040C100003EC10000A8
:100050003CC100003AC1000038C1000044C40000A7
:1000600034C1000032C1000030C100002EC10000C8
:100070002CC100002AC1000028C1000026C10000D8
:1000800024C1000022C1000020C100001EC10000E8
:100090001CC100001AC1000018C1000016C10000F8
:1000A00014C1000012C1000010C100000EC1000008
:1000B0000CC100000AC1000008C1000006C1000018
:1000C00004C1000002C1000000C10000FEC0000029
:1000D000FCC00000FAC00000F8C00000F6C000003C
:1000E000F4C00000A301A601950199019F01DD0163
:1000F000AA01AE01B401B801BC01C201C601CA0126
:10010000DD01D001D401D801100752075207520770
:100110005207520752071807520752075207520751
:100120005207880690069806A006A806B006B806EC
:10013000C006C806D0065207520752075207520798
:100140005207520781067A0600002100240027008A
:100150002A002D00300033000101000004010701D6
:100160000A0100002200250028002B002E0031008B
:10017000340002010000050108010B01000020000D
:100180002300260029002C002F003200000100006F
:10019000030106010901050505050705080808080A
:1001A000020202020A0A080804040404010101010F
:1001B000010101010303030303030303040707070A
:1001C0000C0C0C0C0C0C0C0C0202020206060606AF
:1001D000060606060B0B0B0B0B0B0B0B010210207C
:1001E000200808102040102040800201020108046D
:1001F0000201010204081020408080402010080401
:100200000201800402018040201008040201080459
:10021000020101020408102040800102040810209D
:10022000408000000A0B02090C0D0E0807030401B0
:1002300000000000000000000000000000000000BE
:10024000000000000000000000000000000012118B
:10025000100000000000000000000000000000008E
:1002600000000000000000005A07AA0811241FBE69
:10027000CFEFD1E2DEBFCDBF00E00CBF13E0A0E0C6
:10028000B2E0EAEFF5E100E00BBF02C007900D928B
:10029000AE30B107D9F724E0AEE0B3E001C01D9263
:1002A000A23CB207E1F711E0C5E3D1E000E005C0F0
:1002B00021970109802FFE015DD7C433D10780E06B
:1002C0000807B1F75AD30C94EC0A9ACE96E0899FAE
:1002D000D0011124A15BBB4F90967C936E935F97E6
:1002E00091E091969C9391979091BB04E091BC040E
:1002F000F091BD04992339F0309751F0811108C075
:1003000080916B0404C0309719F05C968C9119941D
:10031000089590E0FC013197E231F10508F04DC0FD
:100320008827EE58FF4F8F4F25C7809180008F7729
:1003300003C0809180008F7D80938000089580911C
:100340008000877FF9CF84B58F7702C084B58F7D19
:1003500084BD08958091B0008F7703C08091B00074
:100360008F7D8093B0000895809190008F7707C0B3
:10037000809190008F7D03C080919000877F809353
:10038000900008958091A0008F7707C08091A00011
:100390008F7D03C08091A000877F8093A000089587
:1003A000809120018F7707C0809120018F7D03C04D
:1003B00080912001877F809320010895CF93DF9360
:1003C000282F30E0F901EE5DFD4F8491F901E452F0
:1003D000FE4FD491F901EA56FE4FC491CC2389F027
:1003E000811197DFEC2FF0E0EE0FFF1FE458FE4F76
:1003F000A591B491EC91ED2381E090E021F480E0AF
:1004000002C080E090E0DF91CF910895862FD6CF93
:100410001F93CF93DF93282F30E0F901EE5DFD4F5E
:100420008491F901E452FE4FD491F901EA56FE4F4E
:10043000C491CC23C1F0162F81116BDFEC2FF0E0BB
:10044000EE0FFF1FEE59FE4FA591B4918FB7F894B0
:10045000111105C09C91ED2FE095E92302C0EC91AC
:10046000ED2BEC938FBFDF91CF911F910895862FD5
:10047000642FCECFCF93DF9390E0FC01E452FE4F88
:100480002491FC01EA56FE4F8491882361F190E0AB
:10049000880F991FFC01E85BFE4FC591D491FC01C8
:1004A000EE59FE4FA591B491611109C09FB7F89420
:1004B0008881209582238883EC912E230BC06230A3
:1004C00061F49FB7F8943881822F809583238883C5
:1004D000EC912E2B2C939FBF06C08FB7F894E88128
:1004E0002E2B28838FBFDF91CF910895862F642F05
:1004F000C1CF3FB7F8948091130390911403A0915A
:100500001503B091160326B5A89B05C02F3F19F01F
:100510000196A11DB11D3FBFBA2FA92F982F882783
:10052000820F911DA11DB11DBC01CD0142E0660FDE
:10053000771F881F991F4A95D1F708958F929F9230
:10054000AF92BF92CF92DF92EF92FF926B017C014C
:10055000D0DF4B015C01C114D104E104F104E9F0E6
:10056000C8DFDC01CB0188199909AA09BB09883EBB
:100570009340A105B10578F321E0C21AD108E10842
:10058000F10888EE880E83E0981EA11CB11CC114EE
:10059000D104E104F10421F7DECFFF90EF90DF906A
:1005A000CF90BF90AF909F908F9008952FB7F89401
:1005B00060910F03709110038091110390911203C9
:1005C0002FBF08950F931F93CF93DF93C82FD62F7C
:1005D00086E0C89FF0011124E15BFB4F11A2878DDB
:1005E00090A181309105E1F01CF4892B49F03FC0C6
:1005F0008230910591F10397D1F560E070E031C050
:100600006623A9F161E070E08C2F60DECFDF60939C
:10061000A7047093A8048093A9049093AA0427C008
:10062000C5DF0091A7041091A8042091A90430917E
:10063000AA04AB01BC01401B510B620B730B8091F0
:10064000B9049091BA04A0E0B0E084179507A6071A
:10065000B70718F462E070E004C0D11108C063E08D
:1006600070E08C2FDF91CF911F910F912FCEDF91F2
:10067000CF911F910F91089561E087E3C9DE64E691
:1006800070E080E090E05ADF60E087E3C1DE64E67E
:1006900070E080E090E052DF61E087E3B9DE64E67D
:1006A00070E080E090E04ADF60E087E3B1CE0F9336
:1006B0001F93CF93DF93EC0188819981009729F0F4
:1006C0002A813B812617370780F48B016F5F7F4FAC
:1006D00086D6009761F0998388831B830A832C81D7
:1006E0003D81232B11F4FC01108281E001C080E0E8
:1006F000DF91CF911F910F910895CF93DF93EC017C
:1007000088819981009709F0D2D5198218821D82BB
:100710001C821B821A82DF91CF910895EF92FF9283
:100720000F931F93CF93DF93EC017B01611571054C
:10073000E1F0FB0101900020E9F73197E61BF70B90
:100740000C811D81309799F00E0F1F1FB801AFDF8C
:10075000882359F0288139818C819D81B701820FCE
:10076000931F33D71D830C8302C0CE01C6DFCE0199
:10077000DF91CF911F910F91FF90EF900895EF922D
:10078000FF920F931F93CF93DF93EC017B018A01BC
:10079000BA018DDF811103C0CE01AFDF06C01D831A
:1007A0000C83B7018881998110D7CE01DF91CF9159
:1007B0001F910F91FF90EF900895CF93DF93EC017D
:1007C000FB018617970751F06081718161157105F2
:1007D00021F044815581D3DF01C08FDFCE01DF914D
:1007E000CF910895FC01118210821382128215822A
:1007F0001482E3CFFC0111821082138212821582CF
:1008000014826115710549F0FB0101900020E9F7A0
:100810003197AF01461B570BB2CF0895FC01808181
:10082000918145C5CF92DF92EF92FF920F931F9374
:10083000CF93DF938C01E0901B03F0901C0397E1B2
:10084000C92E93E0D92EC0E0D0E0EC16FD0608F4E6
:1008500041C0F80124813581F601848195812817F2
:10086000390799F5F80180819181F60160817181E4
:10087000009719F06115710529F56115710551F0A1
:10088000232B51F0FB01208130E088279927821B20
:10089000930B19C0009779F4CC0FDD1FC65DDD4FB7
:1008A00060E08881DF91CF911F910F91FF90EF90D1
:1008B000DF90CF90ADCD232B79F3FC019081892F70
:1008C00090E001C079D6892B39F32196F6E0CF0E5E
:1008D000D11CBBCFDF91CF911F910F91FF90EF9073
:1008E000DF90CF9008951F920F920FB60F921124B0
:1008F0002F933F938F939F93AF93BF9380910F0359
:1009000090911003A0911103B091120330910E0346
:1009100023E0230F2D3720F40196A11DB11D05C042
:1009200026E8230F0296A11DB11D20930E0380938C
:100930000F0390931003A0931103B09312038091BF
:10094000130390911403A0911503B091160301961F
:10095000A11DB11D8093130390931403A09315035D
:10096000B0931603BF91AF919F918F913F912F91BB
:100970000F900FBE0F901F901895CF93DF9300D06C
:1009800000D0CDB7DEB7789484B5826084BD84B5DD
:10099000816084BD85B5826085BD85B5816085BD7A
:1009A00080916E00816080936E0010928100809132
:1009B00081008260809381008091810081608093BA
:1009C0008100809180008160809380008091B100DF
:1009D00084608093B1008091B00081608093B0000A
:1009E000809191008260809391008091910081605C
:1009F000809391008091900081608093900080911D
:100A0000A10082608093A1008091A1008160809309
:100A1000A1008091A00081608093A00080912101BD
:100A20008260809321018091210181608093210166
:100A30008091200181608093200180917A00846000
:100A400080937A0080917A00826080937A0080910E
:100A50007A00816080937A0080917A008068809328
:100A60007A001092C10061E080E004DD60E080E087
:100A7000CFDC61E087E3FEDC60E087E3C9DC412C8A
:100A8000512C3201439422242A94322C81E0809309
:100A9000BB048CDD0091AB041091AC042091AD043B
:100AA0003091AE04AB01BC01401B510B620B730BC8
:100AB0008091B7049091B804A0E0B0E08417950746
:100AC000A607B70708F003C110E08091B504181716
:100AD00058F4E091B104F091B204E10FF11D62E02D
:100AE0008081C8DC1F5FF1CF912C8091B6049816ED
:100AF00008F05DC0E92CF12CE091B304F091B4044E
:100B0000EE0DFF1D61E08081B5DCE091B304F09152
:100B1000B404EE0DFF1D60E080817ADCD301C201D8
:100B2000092C04C0880F991FAA1FBB1F0A94D2F773
:100B30005C016C01C094D094812C8091B50488161E
:100B400008F5082D10E08091B1049091B204FC01E9
:100B5000E00FF11F808132DC0C5F1F4F000F111F6F
:100B6000F801E15BFB4F892B29F4808191818A296F
:100B70009B2904C0808191818C219D219183808358
:100B80008394DBCFE091B304F091B404EE0DFF1D2C
:100B900061E080813DDC8091B3049091B404FC015C
:100BA000EE0DFF1D60E0808165DC93949ECFEBE647
:100BB000F4E083819481892B21F410823282218296
:100BC0001582369684E0E73AF80799F7E12C46E07B
:100BD000F42E8091B504E81608F052C0D12C0E2DE9
:100BE00010E0000F111F095A1B4F2091B604D216B6
:100BF00008F044C0F801608171810D2C02C0769527
:100C000067950A94E2F761707727E29E90011124BC
:100C10002D0D311DE091AF04F091B004E20FF31FF0
:100C2000A081EFE4F4E080E0458D568D4217530734
:100C300011F461701AC08F5F36968A30A9F7672B5E
:100C4000D9F0EBE6F4E080E090E0408141110FC084
:100C5000F89EF001F99EF00D1124E15BFB4FA48F8B
:100C6000368F258F10A2178E61E0ACDC05C001968F
:100C700036968A30910549F7D394B7CFE394A9CF3C
:100C800080E090E010E0FC01E15BFB4F21A121112D
:100C900011E006968C339105B1F788DC6093AB04C4
:100CA0007093AC048093AD049093AE04112379F05B
:100CB00080917004882359F080916E0490916F04A4
:100CC000019729F4E0916B04E11104C0EBC010928C
:100CD000BB04E8C08E2FEE0F990BAA0BBB0BFC01D7
:100CE000B397E032F10508F0DDC08827EC57FF4FDD
:100CF0008F4F40C22AE2E22E22E0F22E00E010E006
:100D000074C09AE2E92E92E0F92E00E010E05BC098
:100D100069E474E0CE01019665DD61E972E047C0E7
:100D200069E474E0CE0101965DDD64E972E03FC0E4
:100D300069E474E0CE01019655DD67E972E037C0E1
:100D400069E474E0CE0101964DDD6AE972E02FC0DE
:100D500069E474E0CE01019645DD6DE972E027C0DB
:100D600069E474E0CE0101963DDD60EA72E01FC0E7
:100D700069E474E0CE01019635DD63EA72E017C0E4
:100D800069E474E0CE0101962DDD66EA72E00FC0E1
:100D900069E474E0CE01019625DD69EA72E007C0DE
:100DA00069E474E0CE0101961DDD6CEA72E0CE01CB
:100DB0000196B4DCBC0189E494E0FFDCCE0101962D
:100DC0002DDD5ADC6FC080911B0390911C038017AE
:100DD000910708F467C0F7018081F2E0EF0EF11C83
:100DE00061E016DB0F5F1F4FEECF80911B039091E8
:100DF0001C038017910708F455C0F701D080F2E07A
:100E0000EF0EF11C61E08D2D03DB68EE73E080E0F6
:100E100090E094DB60E08D2DFBDA0F5F1F4FE5CF94
:100E200069E474E0CE010196DDDC61E070E01BC096
:100E300080914D0490914E04892B39F48AE2E82E7A
:100E400082E0F82E00E010E015C0E0914904F09136
:100E50004A048081882391F369E474E0CE0101960D
:100E6000C1DC60E070E0CE010196DCDCCE010196D1
:100E7000D5DC11C080911B0390911C038017910752
:100E800050F0F7018081F2E0EF0EF11C60E0C0DA73
:100E90000F5F1F4FEFCF40E050E06EE172E089E45A
:100EA00094E06DDC80E090E0892B09F4EFCD0E94A6
:100EB0000000ECCD1092510410925504109254048D
:100EC0001092560484E292E09093500480934F0471
:100ED00080E090E0FC01E15BFB4F148E10A2178EC6
:100EE00011A206968C339105A9F784E092E09093C5
:100EF000B2048093B10480E092E09093B4048093B4
:100F0000B30484E08093B5048093B60488E092E053
:100F10009093B0048093AF048AE090E09093B8047B
:100F20008093B70484EF91E09093BA048093B9045E
:100F30001092BD041092BC041092AB041092AC0449
:100F40001092AD041092AE041092BB0462E972E0FC
:100F500089E494E04FDC64E972E087E193E04ADCE5
:100F600067E972E08DE193E045DC6AE972E083E2D3
:100F700093E040DC6DE972E089E293E03BDC60EAFB
:100F800072E08FE293E036DC63EA72E085E393E09F
:100F900031DC66EA72E08BE393E02CDC69EA72E014
:100FA00081E493E027DC6CEA72E087E493E022DCE2
:100FB00060E972E08DE493E01DDC63E972E083E5B3
:100FC00093E018DC66E972E089E593E013DC69E9F7
:100FD00072E08FE593E00EDC6CE972E085E693E069
:100FE00009DC6FE972E08BE693E004DC62EA72E010
:100FF00081E793E0FFDB65EA72E087E793E0FADBE5
:1010000068EA72E08DE793E0F5DB6BEA72E083E873
:1010100093E0F0DB6EEA72E089E893E0EBDB61EBF2
:1010200072E08FE893E0E6DB64EB72E085E993E041
:10103000E1DB67EB72E08BE993E0DCDB6AEB72E00B
:1010400081EA93E0D7DB6DEB72E087EA93E0D2DBD5
:1010500060EC72E08DEA93E0CDDB63EC72E083EB51
:1010600093E0C8DB66EC72E089EB93E0C3DB69ECEC
:1010700072E08FEB93E0BEDB6CEC72E085EC93E00A
:10108000B9DB6FEC72E08BEC93E0B4DB62ED72E005
:1010900081ED93E0AFDB65ED72E087ED93E0AADBD5
:1010A00068ED72E08DED93E0A5DB6BED72E083EE11
:1010B00093E0A0DB6EED72E089EE93E09BDB61EEE6
:1010C00072E08FEE93E096DB64EE72E085EF93E0E2
:1010D00091DB67EE72E08BEF93E08CDB6AEE72E0FF
:1010E00081E094E087DB6DEE72E087E094E082DBE4
:1010F00060EF72E08DE094E07DDB63EF72E083E10E
:1011000094E078DB66EF72E089E194E073DB69EFED
:1011100072E08FE194E06EDB6CEF72E085E294E0C8
:1011200069DB6FEF72E08BE294E064DB62E073E016
:1011300081E394E05FDB65E073E087E394E05ADBF2
:1011400068E073E08DE394E055DB6BE073E083E4EB
:1011500094E050CBCF93DF93C9E4D4E02697CE013F
:101160005DDB83E0C731D807C9F789E494E0DF91FC
:10117000CF9154CBEE0FFF1F881F8BBF0790F691C6
:10118000E02D1994CF93DF938230910510F482E023
:1011900090E0E091C004F091C10420E030E0C0E0B4
:1011A000D0E0309711F14081518148175907C0F0C4
:1011B0004817590761F482819381209719F09B8326
:1011C0008A832BC09093C1048093C00426C021154C
:1011D000310519F04217530718F49A01BE01DF01D7
:1011E000EF010280F381E02DDCCF2115310509F1FB
:1011F000281B390B2430310590F412968D919C9167
:1012000013976115710521F0FB019383828304C05C
:101210009093C1048093C004FD01329644C0FD0147
:10122000E20FF31F81939193225031092D933C9348
:101230003AC02091BE043091BF04232B41F4209189
:101240001A0230911B023093BF042093BE042091F8
:101250001802309119022115310541F42DB73EB71E
:1012600040911C0250911D02241B350BE091BE04DD
:10127000F091BF04E217F307A0F42E1B3F0B2817D1
:10128000390778F0AC014E5F5F4F2417350748F0FF
:101290004E0F5F1F5093BF044093BE048193919300
:1012A00002C0E0E0F0E0CF01DF91CF9108950F930D
:1012B0001F93CF93DF93009709F48CC0FC01329702
:1012C000138212820091C0041091C104011511050E
:1012D00081F420813181820F931F2091BE043091CF
:1012E000BF042817390779F5F093BF04E093BE04D3
:1012F00071C0D80140E050E0AE17BF0750F412961D
:101300002D913C911397AD012115310509F1D901BA
:10131000F3CF9D01DA013383228360817181860FCF
:10132000971F8217930769F4EC0128813981260FF2
:10133000371F2E5F3F4F318320838A819B819383A8
:101340008283452B29F4F093C104E093C00442C08A
:101350001396FC93EE931297ED01499159919E01DA
:10136000240F351FE217F30771F480819181840FF8
:10137000951F029611969C938E938281938113966A
:101380009C938E931297E0E0F0E0D80112968D9135
:101390009C911397009719F0F8018C01F6CF8D916D
:1013A0009C9198012E5F3F4F820F931F2091BE04A6
:1013B0003091BF042817390769F4309729F4109247
:1013C000C1041092C00402C0138212821093BF04A1
:1013D0000093BE04DF91CF911F910F9108956F92FA
:1013E0007F928F929F92AF92BF92CF92DF92EF92B5
:1013F000FF920F931F93CF93DF93EC01009781F43B
:10140000CB01DF91CF911F910F91FF90EF90DF9073
:10141000CF90BF90AF909F908F907F906F90B2CE03
:10142000FC01E60FF71F9C0122503109E217F30778
:1014300008F4A8C0D9010D911C9111970617170740
:10144000A8F00530110508F49BC0C8010497861761
:10145000970708F495C002501109061B170B01935A
:1014600011936D937C93CF0122DF8AC05B01A01A98
:10147000B10A4C01800E911EA091C004B091C1042C
:1014800040E050E0E12CF12C109709F44AC0A81577
:10149000B905D1F56D907C901197630182E0C80E7B
:1014A000D11CCA14DB0480F1A3014A195B096A014B
:1014B00082E0C80ED11C1296BC9012971396AC9184
:1014C000B5E0CB16D10440F0B282A38351834083B0
:1014D000D9016D937C930AC00E5F1F4FC301800F2B
:1014E000911FF90191838083EB2DFA2FE114F10410
:1014F00031F0D7011396FC93EE93129741C0F0930D
:10150000C104E093C0043CC08D919C911197481791
:10151000590708F4AC017D0112960D90BC91A02DE5
:10152000B3CF8091BE049091BF0488159905E1F472
:1015300046175707C8F48091180290911902009736
:1015400041F48DB79EB740911C0250911D02841B3F
:10155000950BE817F907B0F4F093BF04E093BE04CD
:10156000F901718360830CC0CB010CDE7C01009714
:1015700049F0A801BE0117D0CE0199DEC70104C011
:10158000CE0102C080E090E0DF91CF911F910F91DA
:10159000FF90EF90DF90CF90BF90AF909F908F9093
:1015A0007F906F900895FB01DC0102C001900D92C5
:1015B00041505040D8F70895FB01DC018D91019016
:1015C00080190110D9F3990B0895FB01DC010190FA
:1015D0000D920020E1F7089511E0C5E3D1E000E0AD
:1015E00005C0802FFE01C6DD2196011DC633D1073F
:0A15F00080E00807B1F7F894FFCF80
:1015FA00424344453E3F404131323341343536421D
:10160A00373839432A3023440000C20480000000DE
:10161A000000000076023702060200000200030002
:10162A000400050006000700080009000A000B0074
:10163A000C000D000E000F00100011001200130024
:10164A001400150016001700180019001A001B00D4
:10165A001C001D001E001F00200021002200230084
:10166A002400250026002700280029002A002B0034
:10167A002C002D002E002F003000310032003300E4
:10168A003130003131003132003133003134003130
:10169A003500313600313700313800313900323007
:1016AA000032310032320032330032340032350037
:1016BA0032360032370032380032390033300033E4
:1016CA0031003332003333003334003335003336DC
:1016DA0000333700333800333900343000343100F6
:1016EA0034320034330034340034350034360034B4
:0E16FA00370034380034390035300035310007
:020000023000CC
:10E000000D9489F10D94B2F10D94B2F10D94B2F129
:10E010000D94B2F10D94B2F10D94B2F10D94B2F1F0
:10E020000D94B2F10D94B2F10D94B2F10D94B2F1E0
:10E030000D94B2F10D94B2F10D94B2F10D94B2F1D0
:10E040000D94B2F10D94B2F10D94B2F10D94B2F1C0
:10E050000D94B2F10D94B2F10D94B2F10D94B2F1B0
:10E060000D94B2F10D94B2F10D94B2F10D94B2F1A0
:10E070000D94B2F10D94B2F10D94B2F10D94B2F190
:10E080000D94B2F10D94B2F10D94B2F10D94B2F180
:10E090000D94B2F10D94B2F10D94B2F10D94B2F170
:10E0A0000D94B2F10D94B2F10D94B2F10D94B2F160
:10E0B0000D94B2F10D94B2F10D94B2F10D94B2F150
:10E0C0000D94B2F10D94B2F10D94B2F10D94B2F140
:10E0D0000D94B2F10D94B2F10D94B2F10D94B2F130
:10E0E0000D94B2F141546D656761323536300041AF
:10E0F000726475696E6F206578706C6F72657220DE
:10E1000073746B3530305632206279204D4C530099
:10E11000426F6F746C6F616465723E004875683F52
:10E1200000436F6D70696C6564206F6E203D200048
:10E130004350552054797065202020203D20005FF9
:10E140005F4156525F415243485F5F3D2000415658
:10E1500052204C696243205665723D20004743437C
:10E160002056657273696F6E203D20004350552024
:10E1700049442020202020203D20004C6F7720663D
:10E18000757365202020203D20004869676820665F
:10E190007573652020203D200045787420667573D6
:10E1A00065202020203D20004C6F636B2066757336
:10E1B000652020203D20004D617220203720323024
:10E1C000313300312E362E3800342E332E350056A2
:10E1D00023202020414444522020206F7020636F70
:10E1E00064652020202020696E73747275637469E1
:10E1F0006F6E2061646472202020496E74657272B3
:10E20000757074006E6F20766563746F7200726A49
:10E210006D702020006A6D70200057686174207056
:10E220006F72743A00506F7274206E6F7420737541
:10E2300070706F72746564004D7573742062652030
:10E2400061206C6574746572002000577269747483
:10E25000696E672045450052656164696E672045B7
:10E26000450045452065727220636E743D00504F35
:10E27000525400303D5A65726F2061646472003FF1
:10E280003D43505520737461747300403D454550C3
:10E29000524F4D207465737400423D426C696E6B41
:10E2A000204C454400453D44756D70204545505215
:10E2B0004F4D00463D44756D7020464C415348001B
:10E2C000483D48656C70004C3D4C69737420492F83
:10E2D0004F20506F72747300513D51756974005234
:10E2E0003D44756D702052414D00563D73686F7707
:10E2F00020696E7465727275707420566563746FF0
:10E30000727300593D506F727420626C696E6B00BD
:10E310002A0011241FBECFEFD1E2DEBFCDBF01E046
:10E320000CBF12E0A0E0B2E0EEE1FDEF03E00BBFB6
:10E3300002C007900D92A030B107D9F712E0A0E01B
:10E34000B2E001C01D92AE30B107E1F70F9460F367
:10E350000D948DFE01E20EBF0FEF0DBF11241FBE05
:10E360000D9460F30D9400F020E030E040ED57E0B4
:10E3700005C0FA013197F1F72F5F3F4F2817390792
:10E38000C0F308959C01260F311DC901A0E0B0E043
:10E390002F5F3F4FABBFFC018791882361F08093D3
:10E3A000C6008091C00086FFFCCF8091C0008064D1
:10E3B0008093C000EACF08958DE08093C6008091DD
:10E3C000C00086FFFCCF8091C00080648093C000B5
:10E3D0008AE08093C6008091C00086FFFCCF8091C8
:10E3E000C00080648093C00008950F94C2F10F9420
:10E3F000DCF10895FC019081992359F09093C600B7
:10E400008091C00086FFFCCF8091C0008064809323
:10E41000C0003196992379F70895282F982F929567
:10E420009F70892F805D8A3308F0895F8093C600D2
:10E430008091C00086FFFCCF8091C00080648093F3
:10E44000C000822F8F70982F905D9A3308F0995FEB
:10E450009093C6008091C00086FFFCCF8091C000E1
:10E4600080648093C00008959C01FB01853691056E
:10E470001CF46330710594F0C90164E670E00F94F8
:10E480002EFE605D7F4F6093C6008091C00086FFC6
:10E49000FCCF8091C00080648093C0002B30310598
:10E4A00014F43297B4F0C90164E670E00F942EFEC4
:10E4B0006AE070E00F942EFE605D7F4F6093C600AF
:10E4C0008091C00086FFFCCF8091C0008064809363
:10E4D000C000C9016AE070E00F942EFEC0968093E0
:10E4E000C6008091C00086FFFCCF8091C000806490
:10E4F0008093C00008951F93182F8EE692EE60E07F
:10E500000F94C2F11093C6008091C00086FFFCCF2B
:10E510008091C00080648093C0000F94DCF11F9153
:10E5200008952F923F924F925F926F927F928F92B7
:10E530009F92AF92BF92CF92DF92EF92FF920F9392
:10E540001F93DF93CF93CDB7DEB762970FB6F894E2
:10E55000DEBF0FBECDBF382E622ECA01DB015C01CB
:10E560006D01772420E2222E2E010894411C511CBB
:10E570008BC081E0A81680E0B80681E0C80680E084
:10E58000D80628F0C601AA27BB270F940DF2BB2797
:10E59000AD2D9C2D8B2D0F940DF28A2D0F940DF225
:10E5A0002092C6008091C00086FFFCCF8091C00001
:10E5B00080648093C0009DE29093C6008091C0006B
:10E5C00086FFFCCF8091C00080648093C0002092C1
:10E5D000C6008091C00086FFFCCF8091C00080649F
:10E5E0008093C00019828601750188249924A1E0D6
:10E5F0003A1651F03A1620F0B2E03B1661F409C029
:10E600000BBFF701779007C0C7010F9477FE782EF4
:10E6100002C0F7017080872D0F940DF22092C60082
:10E620008091C00086FFFCCF8091C0008064809301
:10E63000C000872D8052F401EF70F0708F3520F408
:10E64000E40DF51D708204C0E40DF51D8EE280839B
:10E650000894E11CF11C011D111D0894811C911CE2
:10E6600090E18916910409F0C2CF80E190E0A0E02A
:10E67000B0E0A80EB91ECA1EDB1E198AC2010F9493
:10E68000FAF10F94DCF16A94662009F072CF629679
:10E690000FB6F894DEBF0FBECDBFCF91DF911F91B3
:10E6A0000F91FF90EF90DF90CF90BF90AF909F9031
:10E6B0008F907F906F905F904F903F902F90089534
:10E6C0002F923F924F925F926F927F928F929F9282
:10E6D000AF92BF92CF92DF92EF92FF920F931F9370
:10E6E000DF93CF93CDB7DEB7CD53D1400FB6F894BB
:10E6F000DEBF0FBECDBF01E20EBF0FEF0DBF94B75F
:10E70000F894A89514BE80916000886180936000A1
:10E7100010926000789493FF05C0E0910002F091A0
:10E7200001021995279A2F9A8091C00082608093E8
:10E73000C00080E18093C40088E18093C1000000A4
:10E74000EE24FF24870144E0A42EB12CCC24DD2448
:10E7500024C0C5010197F1F70894E11CF11C011DCB
:10E76000111D21E2E2162EE4F20620E0020720E06D
:10E77000120718F031E0C32ED12CC801B70127ECE5
:10E780003BE140E050E00F9441FE611571058105C9
:10E79000910519F485B1805885B98091C00087FD35
:10E7A00003C0C114D104A9F2A6014F5F5F4FC25E3E
:10E7B000DE4F59834883CE51D140C25EDE4F8881FF
:10E7C0009981CE51D140019711F00D9410FEC05D9A
:10E7D000DE4F19821882C053D14060E0C15DDE4F28
:10E7E0001882CF52D14088249924C35DDE4F19820C
:10E7F0001882CD52D140C05EDE4F188219821A8233
:10E800001B82C052D140CE5CDE4F188219821A8220
:10E810001B82C253D140EE24FF2487010BBFF701B6
:10E8200007911691C45CDE4F19830883CC53D14005
:10E830000D940BFEC25EDE4F28813981CE51D1404E
:10E840002130310509F52091C600C25EDE4F1982E4
:10E850001882CE51D14022C02F5F3F4F4F4F5F4FA4
:10E86000213082E138078AE7480780E0580780F0C6
:10E87000C45CDE4FE881F981CC53D140EF5FFF4F9C
:10E8800019F0EE27FF27099420E030E040E050E047
:10E890008091C00087FFE0CF2091C600C35DDE4FAE
:10E8A00048815981CD52D1404F5F5F4FC35DDE4FEC
:10E8B00059834883CD52D140213209F063C64A3092
:10E8C000510508F05FC60894811C911C53E0851621
:10E8D000910409F059C600E010E018C081E280936D
:10E8E000C6008091C00086FFFCCF8091C00080648C
:10E8F0008093C0002F5F3F4F2931310579F70F9486
:10E90000DCF10F5F1F4F0530110519F020E030E0FA
:10E91000E5CF10920A0210920B0210920C02109294
:10E920000D02109206021092070210920802109235
:10E930000902109202021092030210920402109235
:10E9400005028FEE90EE60E00F94F5F180E191EE1C
:10E9500060E00F94C2F18091C00087FFFCCF9091DE
:10E96000C600903608F09F759032B8F09093C600BC
:10E970008091C00086FFFCCF8091C00080648093AE
:10E98000C000A0E2A093C6008091C00086FFFCCF2B
:10E990008091C00080648093C000983409F4D7C18E
:10E9A0009934B8F4923409F459C1933458F490333B
:10E9B00019F1903308F4E3C59F33A1F1903409F0C5
:10E9C000DEC5BDC0953409F470C1963409F0D7C5D1
:10E9D00098C1923509F42BC2933538F49C3409F46C
:10E9E000F5C1913509F0CBC518C2963509F445C279
:10E9F000993509F0C4C567C483E792EE62E00F94CD
:10EA0000F5F110920602109207021092080210927D
:10EA1000090210920A0210920B0210920C0210923C
:10EA20000D0213C18FE792EE62E00F94F5F18FEEC5
:10EA300090EE60E00F94F5F181E291EE60E00F94CA
:10EA4000C2F187EB91EE60E00F94F5F180E391EE77
:10EA500060E00F94C2F184EE90EE60E00F94F5F167
:10EA60008FE391EE60E00F94C2F186E090E061E008
:10EA700070E00F9434F20F94DCF18DE591EE60E0DC
:10EA80000F94C2F189EC91EE60E00F94F5F18EE401
:10EA900091EE60E00F94C2F183EC91EE60E00F9490
:10EAA000F5F18CE691EE60E00F94C2F18EE10F94E7
:10EAB0000DF288E90F940DF281E00F940DF20F949E
:10EAC000DCF18BE791EE60E00F94C2F119E0E0E039
:10EAD000F0E010935700E4918E2F0F940DF20F94F5
:10EAE000DCF18AE891EE60E00F94C2F1E3E0F0E03F
:10EAF00010935700E4918E2F0F940DF20F94DCF1D8
:10EB000089E991EE60E00F94C2F1E2E0F0E0109349
:10EB10005700E4918E2F0F940DF20F94DCF188EAE8
:10EB200091EE60E00F94C2F1E1E0F0E01093570045
:10EB30001491812F0F940DF20F94DCF107CF8BE825
:10EB400092EE62E00F94F5F18BE492EE60E00F94A8
:10EB5000F5F10F94DCF100E010E019C0C8016F2D51
:10EB60000F947FFEFF2031F489E492EE60E00F9471
:10EB7000C2F10BC0F092C6008091C00086FFFCCFAE
:10EB80008091C00080648093C0000F5F1F4FC80158
:10EB900081519F41A0E0B0E0ABBFFC01F790BAE229
:10EBA000FB1621F0E2E000301E07C1F60F94DCF105
:10EBB0000F94DCF187E592EE60E00F94F5F10F948D
:10EBC000DCF1CC24DD2400E010E01EC0C8010F946D
:10EBD00077FEF82E882331F489E492EE60E00F94FA
:10EBE000C2F10BC08093C6008091C00086FFFCCFAD
:10EBF0008091C00080648093C000FE1419F00894D6
:10EC0000C11CD11C0F5F1F4FC80181519F41A0E063
:10EC1000B0E0ABBFFC01E790FAE2EF1621F022E092
:10EC20000030120799F60F94DCF10F94DCF182E6C4
:10EC300092EE60E00F94C2F1C60161E070E00F94C3
:10EC400034F20F94DCF10F94DCF110920202109276
:10EC50000302109204021092050278CE89E992EE26
:10EC600062E00F94F5F1279A2F9A16C02F9880E052
:10EC700090E0E0EDF7E03197F1F7019684369105E9
:10EC8000C1F72F9A80E090E0E0EDF7E03197F1F7DF
:10EC9000019684369105C1F78091C00087FFE6CFC9
:10ECA0008091C00087FFFCCF64C485EA92EE62E0E9
:10ECB0000F94F5F140910202509103026091040219
:10ECC0007091050281E020E10F9491F2809102029F
:10ECD00090910302A0910402B091050280509F4FD1
:10ECE000AF4FBF4F8093020290930302A0930402A0
:10ECF000B093050280509041A040B04008F426CE69
:10ED0000A4CF83EB92EE62E00F94F5F140910602FE
:10ED100050910702609108027091090280E020E1A1
:10ED20000F9491F28091060290910702A09108023F
:10ED3000B091090280509F4FAF4FBF4F80930602A2
:10ED400090930702A0930802B0930902FFCD80ECD4
:10ED500092EE62E00F94F5F183E792EE60E00F949B
:10ED6000F5F18FE792EE60E00F94F5F18BE892EE0B
:10ED700060E00F94F5F189E992EE60E00F94F5F10F
:10ED800085EA92EE60E00F94F5F183EB92EE60E09D
:10ED90000F94F5F180EC92EE60E00F94F5F187ECC2
:10EDA00092EE60E00F94F5F188ED92EE60E00F9442
:10EDB000F5F18FED92EE60E00F94F5F18AEE92EEB0
:10EDC00060E00F94F5F183E093EEBDCD87EC92EE19
:10EDD00062E00F94F5F181E40F947BF282E40F94EA
:10EDE0007BF283E40F947BF284E40F947BF285E45E
:10EDF0000F947BF286E40F947BF287E40F947BF20E
:10EE000088E40F947BF28AE40F947BF28BE40F94F6
:10EE10007BF28CE40F947BF299CD88ED92EE62E068
:10EE20000F94F5F1772473948824992409C48FED05
:10EE300092EE62E00F94F5F140910A0250910B02BC
:10EE400060910C0270910D0282E020E10F9491F22A
:10EE500080910A0290910B02A0910C02B0910D02D8
:10EE600080509F4FAF4FBF4F80930A0290930B0289
:10EE7000A0930C02B0930D0269CD8AEE92EE62E08F
:10EE80000F94F5F184EE90EE60E00F94F5F18FECC5
:10EE900091EE60E00F94F5F1662477244301CC5D98
:10EEA000DE4F19821882C452D140D401C301B695F5
:10EEB000A79597958795CA5DDE4F88839983AA8326
:10EEC000BB83C652D140CC5DDE4FA881B981C4520C
:10EED000D1401196CC5DDE4FB983A883C452D14096
:10EEE000CD0162E070E00F9434F2B0E2B093C6005E
:10EEF0008091C00086FFFCCF8091C0008064809329
:10EF0000C000EDE2E093C6008091C00086FFFCCF18
:10EF10008091C00080648093C000F0E2F093C6004E
:10EF20008091C00086FFFCCF8091C00080648093F8
:10EF3000C000CA5DDE4FE880F9800A811B81C6529D
:10EF4000D140BB27A12F902F8F2D0F940DF2CA5DBA
:10EF5000DE4F8881C652D1400F940DF2B0E2FB2EF5
:10EF6000F092C6008091C00086FFFCCF8091C00067
:10EF700080648093C0000DE30093C6008091C000C0
:10EF800086FFFCCF8091C00080648093C00010E2B7
:10EF90001093C6008091C00086FFFCCF8091C00016
:10EFA00080648093C0008BBEF3012791C65DDE4F65
:10EFB0002883CA52D140A22EBB24CC24DD2408943D
:10EFC000611C711C811C911C8BBEF3018791282E42
:10EFD0003324442455240894611C711C811C911C09
:10EFE0008BBEF3013791C55DDE4F3883CB52D140E4
:10EFF0000894611C711C811C911C8BBEF30147910C
:10F00000C45DDE4F4883CC52D140ADEFEA2EAFEF66
:10F01000FA2EAFEF0A2FAFEF1A2F6E0C7F1C801E57
:10F02000911E142D032DF22CEE24EA0CFB1C0C1D5A
:10F030001D1D0F940DF220E22093C6008091C000A8
:10F0400086FFFCCF8091C00080648093C000C65DC5
:10F05000DE4F8881CA52D1400F940DF230E23093D6
:10F06000C6008091C00086FFFCCF8091C000806404
:10F070008093C000C45DDE4F8881CC52D1400F9494
:10F080000DF240E24093C6008091C00086FFFCCFA5
:10F090008091C00080648093C000C55DDE4F888190
:10F0A000CB52D1400F940DF250E25093C6008091A4
:10F0B000C00086FFFCCF8091C00080648093C000B8
:10F0C0008FEFE8168FEFF80680E0080780E018075A
:10F0D00031F484E092EE60E00F94C2F1DFC0D80119
:10F0E000C7018070907CA070B0708050904CA040A0
:10F0F000B040D1F52FEF3FE340E050E0E222F322B1
:10F1000004231523CA5DDE4FA880B980CA80DB8046
:10F11000C652D140AE0CBF1CC01ED11EAA0CBB1CD7
:10F12000CC1CDD1C8EE092EE60E00F94C2F1BB2798
:10F13000A12F902F8F2D0F940DF28E2D0F940DF285
:10F1400030E23093C6008091C00086FFFCCF8091F2
:10F15000C00080648093C0004EE34093C60080915D
:10F16000C00086FFFCCF87C08EE09EEFA0E0B0E03D
:10F17000E822F9220A231B239CE0E91694E9F90608
:10F1800090E0090790E0190709F088C0C45DDE4FE0
:10F19000A881CC52D140EA2EFF2400E010E0102FCD
:10F1A0000F2DFE2CEE24C55DDE4FB881CB52D14031
:10F1B000EB0EF11C011D111DD601C501817090706F
:10F1C000A070B070DC0199278827E80EF91E0A1F8D
:10F1D0001B1F20EF30E040E050E0A222B322C42207
:10F1E000D52241E1AA0CBB1CCC1CDD1C4A95D1F7F1
:10F1F000EA0CFB1C0C1D1D1D81E090E0A0E0B0E0BE
:10F20000282239224A225B2235E1220C331C441C7D
:10F21000551C3A95D1F7E20CF31C041D151D57013E
:10F220006801AA0CBB1CCC1CDD1C85E192EE60E0E1
:10F230000F94C2F1C801AA27BB270F940DF2BB2778
:10F24000A12F902F8F2D0F940DF28E2D0F940DF274
:10F2500090E29093C6008091C00086FFFCCF809121
:10F26000C00080648093C000AEE3A093C60080918C
:10F27000C00086FFFCCF8091C00080648093C000F6
:10F28000C601AA27BB270F940DF2BB27AD2D9C2DDD
:10F290008B2D0F940DF28A2D0F940DF20F94DCF14B
:10F2A000CC5DDE4FE881F981C452D140F99709F471
:10F2B0004DCBF4E0EF2EF12C012D112D6E0C7F1CA7
:10F2C000801E911EF2CD83E093EE62E00F94F5F183
:10F2D0008AE192EE60E00F94C2F18091C00087FF56
:10F2E000FCCF1091C6001F751093C6008091C0001E
:10F2F00086FFFCCF8091C00080648093C0000F9493
:10F30000DCF1812F81548A3108F036C1163409F4BA
:10F3100095C0173490F4133409F44EC0143430F40B
:10F320001134F1F0123409F01DC130C0143409F465
:10F3300059C0153409F016C16BC01A3409F4C4C0A1
:10F340001B3438F4173409F48FC0183409F00AC19B
:10F35000A1C01B3409F4D2C01C3409F003C1E8C0B9
:10F360008FEF81B90DC082B1809582B980E090E0C5
:10F37000E0EDF7E03197F1F70196883C9105C1F790
:10F380008091C00087FFEFCF12B8EFC08FEF84B934
:10F390000DC085B1809585B980E090E0E0EDF7E0A3
:10F3A0003197F1F70196883C9105C1F78091C00033
:10F3B00087FFEFCF15B8D9C08FEF87B90DC088B1DF
:10F3C000809588B980E090E0E0EDF7E03197F1F7C3
:10F3D0000196883C9105C1F78091C00087FFEFCF6F
:10F3E00018B8C3C08FEF8AB90DC08BB180958BB9A7
:10F3F00080E090E0E0EDF7E03197F1F70196883C8E
:10F400009105C1F78091C00087FFEFCF1BB8ADC059
:10F410008FEF8DB90DC08EB180958EB980E090E0F0
:10F42000E0EDF7E03197F1F70196883C9105C1F7DF
:10F430008091C00087FFEFCF1EB897C08FEF80BBD1
:10F440000DC081B3809581BB80E090E0E0EDF7E0F6
:10F450003197F1F70196883C9105C1F78091C00082
:10F4600087FFEFCF11BA81C08FEF83BB0DC084B38C
:10F47000809584BB80E090E0E0EDF7E03197F1F714
:10F480000196883C9105C1F78091C00087FFEFCFBE
:10F4900014BA6BC08FEF809301010FC080910201FD
:10F4A00080958093020180E090E0E0EDF7E03197F5
:10F4B000F1F70196883C9105C1F78091C00087FF64
:10F4C000EDCF1092020151C08FEF809304010FC065
:10F4D0008091050180958093050180E090E0E0ED4A
:10F4E000F7E03197F1F70196883C9105C1F78091DB
:10F4F000C00087FFEDCF1092050137C08FEF8093DA
:10F5000007010FC08091080180958093080180E079
:10F5100090E0E0EDF7E03197F1F70196883C910536
:10F52000C1F78091C00087FFEDCF109208011DC088
:10F530008FEF80930A010FC080910B01809580931B
:10F540000B0180E090E0E0EDF7E03197F1F70196F4
:10F55000883C9105C1F78091C00087FFEDCF1092E4
:10F560000B0103C085E292EEEEC98091C00087FFD7
:10F57000FCCF8091C600EAC988E392EEE4C98CE131
:10F5800091EEE1C988249924933011F1943028F444
:10F59000913089F09230B8F408C0953061F195301F
:10F5A000F0F0963009F048C043C02B3109F042C951
:10F5B00091E06BE13FC96227C15DDE4F2883CF52E6
:10F5C000D14092E037C9B22FA0E0622793E032C960
:10F5D000822F90E0A82BB92B622794E02BC92E3004
:10F5E00009F039C3622795E0C05DDE4F19821882A9
:10F5F000C053D1401FC9E1E0F0E0EC0FFD1FC05D3A
:10F60000DE4F08811981C053D140E00FF11F2083E4
:10F610000F5F1F4FC05DDE4F19830883C053D14079
:10F6200062270A171B0709F005C9D80196E002C92D
:10F63000261709F010C303C0973009F0FBC87724E0
:10F640009981933109F412C19431C8F4963009F4C8
:10F65000D8C0973050F4923009F406C1933009F4C1
:10F660006DC0913009F059C253C0913109F477C08F
:10F67000923108F0BBC0903109F04FC2F5C098310B
:10F6800009F487C0993150F4953109F4EFC09531F0
:10F6900008F4C6C1963109F040C2C2C19A3109F4DA
:10F6A0006CC09A3108F491C09B3109F45BC09D3164
:10F6B00009F033C29D81903359F48F81882311F46E
:10F6C0009EE11CC0813011F091E018C098E916C08D
:10F6D000892F807591F0903539F4E0E0F0E089E011
:10F6E0008093570094910AC0983539F4E3E0F0E034
:10F6F00089E080935700949101C090E01A821B82A8
:10F700008D818C831D829E831F8227E030E009C299
:10F710001A8288E08B8381E48C8386E58D8382E581
:10F720008E8389E48F8383E5888780E589878FE5E9
:10F730008A8782E38B872BE030E0F3C18A818139AD
:10F7400041F0823941F0803911F48FE005C080E04A
:10F7500003C082E001C08AE01A828B8344C0772410
:10F76000739482C08D81882311F48EE12CC0813086
:10F7700011F081E028C088E926C01A82E1E0F0E0BB
:10F7800089E08093570084918B831C8224E030E0D1
:10F79000C8C18B81803589F48C81883039F4E2E0EE
:10F7A000F0E089E08093570084910DC0E0E0F0E044
:10F7B00089E080935700849106C0E3E0F0E089E09F
:10F7C0008093570084911A82DFCF8D81836C99E0FA
:10F7D000E1E0F0E0082E90935700E89507B600FCB2
:10F7E000FDCF1A821B8223E030E09BC180EC8A832C
:10F7F000CE5CDE4F188219821A821B82C253D1401E
:10F800008EC18A8190E0A0E0B0E0582F44273327D2
:10F8100022278B8190E0A0E0B0E0DC0199278827C7
:10F82000282B392B4A2B5B2B8D8190E0A0E0B0E098
:10F83000282B392B4A2B5B2B8C8190E0A0E0B0E089
:10F84000BA2FA92F982F8827282B392B4A2B5B2BCF
:10F85000220F331F441F551FC05EDE4F288339839C
:10F860004A835B83C052D1401A8259C13A81C95C34
:10F87000DE4F3883C753D140CA5CDE4F1882C6536F
:10F88000D1408B81C82EDD24CA5CDE4F488159816E
:10F89000C653D140C42AD52A933109F082C0CE5C28
:10F8A000DE4F88819981AA81BB81C253D1408050AB
:10F8B000904CA340B04030F583E0CE5CDE4FE88052
:10F8C000F9800A811B81C253D140F70100935B008C
:10F8D00080935700E89507B600FCFDCFCE5CDE4F65
:10F8E000088119812A813B81C253D14000501F4FAA
:10F8F0002F4F3F4FCE5CDE4F088319832A833B8313
:10F90000C253D140C05EDE4F488159816A817B81FC
:10F91000C052D140DE011B9631E08C9111962C91A2
:10F9200011971296C75CDE4F2883C953D140C85C3B
:10F93000DE4F1882C853D14090E0C85CDE4FE881AA
:10F94000F981C853D1408E2B9F2B0C01FA01609393
:10F950005B0030935700E89511244E5F5F4F6F4F67
:10F960007F4F0EEFE02E0FEFF02ECE0CDF1CC114F8
:10F97000D10499F685E0C05EDE4F088119812A81A5
:10F980003B81C052D140F80120935B008093570027
:10F99000E89507B600FCFDCF81E180935700E8951C
:10F9A00035C0C05EDE4F88819981AA81BB81C0527B
:10F9B000D140B695A795979587957C018601ABE0D8
:10F9C000AA2EB12CAC0EBD1E0BC0D5016D915D01F0
:10F9D000C7010F947FFE0894E11CF11C01501040F8
:10F9E0000115110591F7A60160E070E0440F551F65
:10F9F000661F771FC05EDE4FE880F9800A811B8199
:10FA0000C052D1404E0D5F1D601F711F1A82C05E33
:10FA1000DE4F488359836A837B83C052D1407FC0C5
:10FA2000FA80C55CDE4FF882CB53D140C65CDE4F16
:10FA30001882CA53D1408B81C82EDD24C65CDE4FAC
:10FA400008811981CA53D140C02AD12A1A828981DA
:10FA5000BE016D5F7F4F843121F59601C05EDE4FA0
:10FA6000E880F9800A811B81C052D1400BBFF701A9
:10FA700087919691DB018C9311969C936E5F7F4FDB
:10FA8000D801C7010296A11DB11DC05EDE4F88835B
:10FA90009983AA83BB83C052D14022503040F1F6F3
:10FAA00036C0C05EDE4F288139814A815B81C052F9
:10FAB000D1400894C108D108760100E010E0089414
:10FAC000C11CD11C0894E11CF11C011D111DE20E8A
:10FAD000F31E041F151F21BDBB27A52F942F832FB5
:10FAE00082BD2F5F3F4F4F4F5F4FF89A80B5DB01CC
:10FAF0008D93BD012E153F054007510761F7C05E8C
:10FB0000DE4F288339834A835B83C052D1409601FC
:10FB10002D5F3F4FFB01108204C080EC8A8322E0FE
:10FB200030E08BE18093C6008091C00086FFFCCF5F
:10FB30008091C00080648093C000C15DDE4FF88179
:10FB4000CF52D140F093C6008091C00086FFFCCF19
:10FB50008091C00080648093C000432F3093C60022
:10FB60008091C00086FFFCCF8091C00080648093AC
:10FB7000C000922F2093C6008091C00086FFFCCF6A
:10FB80008091C00080648093C0008EE08093C600A6
:10FB90008091C00086FFFCCF8091C000806480937C
:10FBA000C00065E1C15DDE4FE880CF52D1406E25D7
:10FBB00069276427FE01319610C090819093C6009A
:10FBC0008091C00086FFFCCF31968091C000806498
:10FBD0008093C0006927215030402115310569F715
:10FBE0006093C6008091C00086FFFCCF8091C0006A
:10FBF00080648093C00085B1805885B9772081F4F6
:10FC0000C15DDE4F0881CF52D1400F5FC15DDE4F35
:10FC10000883CF52D14090E0A0E0B0E00D941AF4F8
:10FC200027982F9880E090E020ED37E0F901319798
:10FC3000F1F7019684369105C9F700008091C00064
:10FC40008D7F8093C00081E180935700E895EE2777
:10FC5000FF270994FFCF90E00D941AF497FB092E2B
:10FC600007260AD077FD04D02ED006D000201AF443
:10FC7000709561957F4F0895F6F7909581959F4F08
:10FC80000895A1E21A2EAA1BBB1BFD010DC0AA1FDD
:10FC9000BB1FEE1FFF1FA217B307E407F50720F0F5
:10FCA000A21BB30BE40BF50B661F771F881F991F70
:10FCB0001A9469F760957095809590959B01AC01B9
:10FCC000BD01CF010895AA1BBB1B51E107C0AA1FAC
:10FCD000BB1FA617B70710F0A61BB70B881F991FED
:10FCE0005A95A9F780959095BC01CD010895F99991
:10FCF000FECF92BD81BDF89A992780B50895262F31
:10FD0000F999FECF1FBA92BD81BD20BD0FB6F89400
:0EFD1000FA9AF99A0FBE01960895F894FFCF63
:040000033000E000E9
:00000001FF