:1000000035C1000062C1000060C100005EC1000097
:100010005CC100005AC1000058C1000056C1000078
:1000200054C1000052C1000050C100004EC1000088
:100030004CC100004AC1000048C1000046C1000098
:1000400044C1000042C1000040C100003EC10000A8
:100050003CC100003AC1000038C1000044C40000A7
:1000600034C1000032C1000030C100002EC10000C8
:100070002CC100002AC1000028C1000026C10000D8
:1000800024C1000022C1000020C100001EC10000E8
:100090001CC100001AC1000018C1000016C10000F8
:1000A00014C1000012C1000010C100000EC1000008
:1000B0000CC100000AC1000008C1000006C1000018
:1000C00004C1000002C1000000C10000FEC0000029
:1000D000FCC00000FAC00000F8C00000F6C000003C
:1000E000F4C00000A301A601950199019F01DD0163
:1000F000AA01AE01B401B801BC01C201C601CA0126
:10010000DD01D001D401D801100752075207520770
:100110005207520752071807520752075207520751
:100120005207880690069806A006A806B006B806EC
:10013000C006C806D0065207520752075207520798
:100140005207520781067A0600002100240027008A
:100150002A002D00300033000101000004010701D6
:100160000A0100002200250028002B002E0031008B
:10017000340002010000050108010B01000020000D
:100180002300260029002C002F003200000100006F
:10019000030106010901050505050705080808080A
:1001A000020202020A0A080804040404010101010F
:1001B000010101010303030303030303040707070A
:1001C0000C0C0C0C0C0C0C0C0202020206060606AF
:1001D000060606060B0B0B0B0B0B0B0B010210207C
:1001E000200808102040102040800201020108046D
:1001F0000201010204081020408080402010080401
:100200000201800402018040201008040201080459
:10021000020101020408102040800102040810209D
:10022000408000000A0B02090C0D0E0807030401B0
:1002300000000000000000000000000000000000BE
:10024000000000000000000000000000000012118B
:10025000100000000000000000000000000000008E
:1002600000000000000000005A07AA0811241FBE69
:10027000CFEFD1E2DEBFCDBF00E00CBF13E0A0E0C6
:10028000B2E0EAEFF5E100E00BBF02C007900D928B
:10029000AE30B107D9F724E0AEE0B3E001C01D9263
:1002A000A23CB207E1F711E0C5E3D1E000E005C0F0
:1002B00021970109802FFE015DD7C433D10780E06B
:1002C0000807B1F75AD30C94EC0A9ACE96E0899FAE
:1002D000D0011124A15BBB4F90967C936E935F97E6
:1002E00091E091969C9391979091BB04E091BC040E
:1002F000F091BD04992339F0309751F0811108C075
:1003000080916B0404C0309719F05C968C9119941D
:10031000089590E0FC013197E231F10508F04DC0FD
:100320008827EE58FF4F8F4F25C7809180008F7729
:1003300003C0809180008F7D80938000089580911C
:100340008000877FF9CF84B58F7702C084B58F7D19
:1003500084BD08958091B0008F7703C08091B00074
:100360008F7D8093B0000895809190008F7707C0B3
:10037000809190008F7D03C080919000877F809353
:10038000900008958091A0008F7707C08091A00011
:100390008F7D03C08091A000877F8093A000089587
:1003A000809120018F7707C0809120018F7D03C04D
:1003B00080912001877F809320010895CF93DF9360
:1003C000282F30E0F901EE5DFD4F8491F901E452F0
:1003D000FE4FD491F901EA56FE4FC491CC2389F027
:1003E000811197DFEC2FF0E0EE0FFF1FE458FE4F76
:1003F000A591B491EC91ED2381E090E021F480E0AF
:1004000002C080E090E0DF91CF910895862FD6CF93
:100410001F93CF93DF93282F30E0F901EE5DFD4F5E
:100420008491F901E452FE4FD491F901EA56FE4F4E
:10043000C491CC23C1F0162F81116BDFEC2FF0E0BB
:10044000EE0FFF1FEE59FE4FA591B4918FB7F894B0
:10045000111105C09C91ED2FE095E92302C0EC91AC
:10046000ED2BEC938FBFDF91CF911F910895862FD5
:10047000642FCECFCF93DF9390E0FC01E452FE4F88
:100480002491FC01EA56FE4F8491882361F190E0AB
:10049000880F991FFC01E85BFE4FC591D491FC01C8
:1004A000EE59FE4FA591B491611109C09FB7F89420
:1004B0008881209582238883EC912E230BC06230A3
:1004C00061F49FB7F8943881822F809583238883C5
:1004D000EC912E2B2C939FBF06C08FB7F894E88128
:1004E0002E2B28838FBFDF91CF910895862F642F05
:1004F000C1CF3FB7F8948091130390911403A0915A
:100500001503B091160326B5A89B05C02F3F19F01F
:100510000196A11DB11D3FBFBA2FA92F982F882783
:10052000820F911DA11DB11DBC01CD0142E0660FDE
:10053000771F881F991F4A95D1F708958F929F9230
:10054000AF92BF92CF92DF92EF92FF926B017C014C
:10055000D0DF4B015C01C114D104E104F104E9F0E6
:10056000C8DFDC01CB0188199909AA09BB09883EBB
:100570009340A105B10578F321E0C21AD108E10842
:10058000F10888EE880E83E0981EA11CB11CC114EE
:10059000D104E104F10421F7DECFFF90EF90DF906A
:1005A000CF90BF90AF909F908F9008952FB7F89401
:1005B00060910F03709110038091110390911203C9
:1005C0002FBF08950F931F93CF93DF93C82FD62F7C
:1005D00086E0C89FF0011124E15BFB4F11A2878DDB
:1005E00090A181309105E1F01CF4892B49F03FC0C6
:1005F0008230910591F10397D1F560E070E031C050
:100600006623A9F161E070E08C2F60DECFDF60939C
:10061000A7047093A8048093A9049093AA0427C008
:10062000C5DF0091A7041091A8042091A90430917E
:10063000AA04AB01BC01401B510B620B730B8091F0
:10064000B9049091BA04A0E0B0E084179507A6071A
:10065000B70718F462E070E004C0D11108C063E08D
:1006600070E08C2FDF91CF911F910F912FCEDF91F2
:10067000CF911F910F91089561E087E3C9DE64E691
:1006800070E080E090E05ADF60E087E3C1DE64E67E
:1006900070E080E090E052DF61E087E3B9DE64E67D
:1006A00070E080E090E04ADF60E087E3B1CE0F9336
:1006B0001F93CF93DF93EC0188819981009729F0F4
:1006C0002A813B812617370780F48B016F5F7F4FAC
:1006D00086D6009761F0998388831B830A832C81D7
:1006E0003D81232B11F4FC01108281E001C080E0E8
:1006F000DF91CF911F910F910895CF93DF93EC017C
:1007000088819981009709F0D2D5198218821D82BB
:100710001C821B821A82DF91CF910895EF92FF9283
:100720000F931F93CF93DF93EC017B01611571054C
:10073000E1F0FB0101900020E9F73197E61BF70B90
:100740000C811D81309799F00E0F1F1FB801AFDF8C
:10075000882359F0288139818C819D81B701820FCE
:10076000931F33D71D830C8302C0CE01C6DFCE0199
:10077000DF91CF911F910F91FF90EF900895EF922D
:10078000FF920F931F93CF93DF93EC017B018A01BC
:10079000BA018DDF811103C0CE01AFDF06C01D831A
:1007A0000C83B7018881998110D7CE01DF91CF9159
:1007B0001F910F91FF90EF900895CF93DF93EC017D
:1007C000FB018617970751F06081718161157105F2
:1007D00021F044815581D3DF01C08FDFCE01DF914D
:1007E000CF910895FC01118210821382128215822A
:1007F0001482E3CFFC0111821082138212821582CF
:1008000014826115710549F0FB0101900020E9F7A0
:100810003197AF01461B570BB2CF0895FC01808181
:10082000918145C5CF92DF92EF92FF920F931F9374
:10083000CF93DF938C01E0901B03F0901C0397E1B2
:10084000C92E93E0D92EC0E0D0E0EC16FD0608F4E6
:1008500041C0F80124813581F601848195812817F2
:10086000390799F5F80180819181F60160817181E4
:10087000009719F06115710529F56115710551F0A1
:10088000232B51F0FB01208130E088279927821B20
:10089000930B19C0009779F4CC0FDD1FC65DDD4FB7
:1008A00060E08881DF91CF911F910F91FF90EF90D1
:1008B000DF90CF90ADCD232B79F3FC019081892F70
:1008C00090E001C079D6892B39F32196F6E0CF0E5E
:1008D000D11CBBCFDF91CF911F910F91FF90EF9073
:1008E000DF90CF9008951F920F920FB60F921124B0
:1008F0002F933F938F939F93AF93BF9380910F0359
:1009000090911003A0911103B091120330910E0346
:1009100023E0230F2D3720F40196A11DB11D05C042
:1009200026E8230F0296A11DB11D20930E0380938C
:100930000F0390931003A0931103B09312038091BF
:10094000130390911403A0911503B091160301961F
:10095000A11DB11D8093130390931403A09315035D
:10096000B0931603BF91AF919F918F913F912F91BB
:100970000F900FBE0F901F901895CF93DF9300D06C
:1009800000D0CDB7DEB7789484B5826084BD84B5DD
:10099000816084BD85B5826085BD85B5816085BD7A
:1009A00080916E00816080936E0010928100809132
:1009B00081008260809381008091810081608093BA
:1009C0008100809180008160809380008091B100DF
:1009D00084608093B1008091B00081608093B0000A
:1009E000809191008260809391008091910081605C
:1009F000809391008091900081608093900080911D
:100A0000A10082608093A1008091A1008160809309
:100A1000A1008091A00081608093A00080912101BD
:100A20008260809321018091210181608093210166
:100A30008091200181608093200180917A00846000
:100A400080937A0080917A00826080937A0080910E
:100A50007A00816080937A0080917A008068809328
:100A60007A001092C10061E080E004DD60E080E087
:100A7000CFDC61E087E3FEDC60E087E3C9DC412C8A
:100A8000512C3201439422242A94322C81E0809309
:100A9000BB048CDD0091AB041091AC042091AD043B
:100AA0003091AE04AB01BC01401B510B620B730BC8
:100AB0008091B7049091B804A0E0B0E08417950746
:100AC000A607B70708F003C110E08091B504181716
:100AD00058F4E091B104F091B204E10FF11D62E02D
:100AE0008081C8DC1F5FF1CF912C8091B6049816ED
:100AF00008F05DC0E92CF12CE091B304F091B4044E
:100B0000EE0DFF1D61E08081B5DCE091B304F09152
:100B1000B404EE0DFF1D60E080817ADCD301C201D8
:100B2000092C04C0880F991FAA1FBB1F0A94D2F773
:100B30005C016C01C094D094812C8091B50488161E
:100B400008F5082D10E08091B1049091B204FC01E9
:100B5000E00FF11F808132DC0C5F1F4F000F111F6F
:100B6000F801E15BFB4F892B29F4808191818A296F
:100B70009B2904C0808191818C219D219183808358
:100B80008394DBCFE091B304F091B404EE0DFF1D2C
:100B900061E080813DDC8091B3049091B404FC015C
:100BA000EE0DFF1D60E0808165DC93949ECFEBE647
:100BB000F4E083819481892B21F410823282218296
:100BC0001582369684E0E73AF80799F7E12C46E07B
:100BD000F42E8091B504E81608F052C0D12C0E2DE9
:100BE00010E0000F111F095A1B4F2091B604D216B6
:100BF00008F044C0F801608171810D2C02C0769527
:100C000067950A94E2F761707727E29E90011124BC
:100C10002D0D311DE091AF04F091B004E20FF31FF0
:100C2000A081EFE4F4E080E0458D568D4217530734
:100C300011F461701AC08F5F36968A30A9F7672B5E
:100C4000D9F0EBE6F4E080E090E0408141110FC084
:100C5000F89EF001F99EF00D1124E15BFB4FA48F8B
:100C6000368F258F10A2178E61E0ACDC05C001968F
:100C700036968A30910549F7D394B7CFE394A9CF3C
:100C800080E090E010E0FC01E15BFB4F21A121112D
:100C900011E006968C339105B1F788DC6093AB04C4
:100CA0007093AC048093AD049093AE04112379F05B
:100CB00080917004882359F080916E0490916F04A4
:100CC000019729F4E0916B04E11104C0EBC010928C
:100CD000BB04E8C08E2FEE0F990BAA0BBB0BFC01D7
:100CE000B397E032F10508F0DDC08827EC57FF4FDD
:100CF0008F4F40C22AE2E22E22E0F22E00E010E006
:100D000074C09AE2E92E92E0F92E00E010E05BC098
:100D100069E474E0CE01019665DD61E972E047C0E7
:100D200069E474E0CE0101965DDD64E972E03FC0E4
:100D300069E474E0CE01019655DD67E972E037C0E1
:100D400069E474E0CE0101964DDD6AE972E02FC0DE
:100D500069E474E0CE01019645DD6DE972E027C0DB
:100D600069E474E0CE0101963DDD60EA72E01FC0E7
:100D700069E474E0CE01019635DD63EA72E017C0E4
:100D800069E474E0CE0101962DDD66EA72E00FC0E1
:100D900069E474E0CE01019625DD69EA72E007C0DE
:100DA00069E474E0CE0101961DDD6CEA72E0CE01CB
:100DB0000196B4DCBC0189E494E0FFDCCE0101962D
:100DC0002DDD5ADC6FC080911B0390911C038017AE
:100DD000910708F467C0F7018081F2E0EF0EF11C83
:100DE00061E016DB0F5F1F4FEECF80911B039091E8
:100DF0001C038017910708F455C0F701D080F2E07A
:100E0000EF0EF11C61E08D2D03DB68EE73E080E0F6
:100E100090E094DB60E08D2DFBDA0F5F1F4FE5CF94
:100E200069E474E0CE010196DDDC61E070E01BC096
:100E300080914D0490914E04892B39F48AE2E82E7A
:100E400082E0F82E00E010E015C0E0914904F09136
:100E50004A048081882391F369E474E0CE0101960D
:100E6000C1DC60E070E0CE010196DCDCCE010196D1
:100E7000D5DC11C080911B0390911C038017910752
:100E800050F0F7018081F2E0EF0EF11C60E0C0DA73
:100E90000F5F1F4FEFCF40E050E06EE172E089E45A
:100EA00094E06DDC80E090E0892B09F4EFCD0E94A6
:100EB0000000ECCD1092510410925504109254048D
:100EC0001092560484E292E09093500480934F0471
:100ED00080E090E0FC01E15BFB4F148E10A2178EC6
:100EE00011A206968C339105A9F784E092E09093C5
:100EF000B2048093B10480E092E09093B4048093B4
:100F0000B30484E08093B5048093B60488E092E053
:100F10009093B0048093AF048AE090E09093B8047B
:100F20008093B70484EF91E09093BA048093B9045E
:100F30001092BD041092BC041092AB041092AC0449
:100F40001092AD041092AE041092BB0462E972E0FC
:100F500089E494E04FDC64E972E087E193E04ADCE5
:100F600067E972E08DE193E045DC6AE972E083E2D3
:100F700093E040DC6DE972E089E293E03BDC60EAFB
:100F800072E08FE293E036DC63EA72E085E393E09F
:100F900031DC66EA72E08BE393E02CDC69EA72E014
:100FA00081E493E027DC6CEA72E087E493E022DCE2
:100FB00060E972E08DE493E01DDC63E972E083E5B3
:100FC00093E018DC66E972E089E593E013DC69E9F7
:100FD00072E08FE593E00EDC6CE972E085E693E069
:100FE00009DC6FE972E08BE693E004DC62EA72E010
:100FF00081E793E0FFDB65EA72E087E793E0FADBE5
:1010000068EA72E08DE793E0F5DB6BEA72E083E873
:1010100093E0F0DB6EEA72E089E893E0EBDB61EBF2
:1010200072E08FE893E0E6DB64EB72E085E993E041
:10103000E1DB67EB72E08BE993E0DCDB6AEB72E00B
:1010400081EA93E0D7DB6DEB72E087EA93E0D2DBD5
:1010500060EC72E08DEA93E0CDDB63EC72E083EB51
:1010600093E0C8DB66EC72E089EB93E0C3DB69ECEC
:1010700072E08FEB93E0BEDB6CEC72E085EC93E00A
:10108000B9DB6FEC72E08BEC93E0B4DB62ED72E005
:1010900081ED93E0AFDB65ED72E087ED93E0AADBD5
:1010A00068ED72E08DED93E0A5DB6BED72E083EE11
:1010B00093E0A0DB6EED72E089EE93E09BDB61EEE6
:1010C00072E08FEE93E096DB64EE72E085EF93E0E2
:1010D00091DB67EE72E08BEF93E08CDB6AEE72E0FF
:1010E00081E094E087DB6DEE72E087E094E082DBE4
:1010F00060EF72E08DE094E07DDB63EF72E083E10E
:1011000094E078DB66EF72E089E194E073DB69EFED
:1011100072E08FE194E06EDB6CEF72E085E294E0C8
:1011200069DB6FEF72E08BE294E064DB62E073E016
:1011300081E394E05FDB65E073E087E394E05ADBF2
:1011400068E073E08DE394E055DB6BE073E083E4EB
:1011500094E050CBCF93DF93C9E4D4E02697CE013F
:101160005DDB83E0C731D807C9F789E494E0DF91FC
:10117000CF9154CBEE0FFF1F881F8BBF0790F691C6
:10118000E02D1994CF93DF938230910510F482E023
:1011900090E0E091C004F091C10420E030E0C0E0B4
:1011A000D0E0309711F14081518148175907C0F0C4
:1011B0004817590761F482819381209719F09B8326
:1011C0008A832BC09093C1048093C00426C021154C
:1011D000310519F04217530718F49A01BE01DF01D7
:1011E000EF010280F381E02DDCCF2115310509F1FB
:1011F000281B390B2430310590F412968D919C9167
:1012000013976115710521F0FB019383828304C05C
:101210009093C1048093C004FD01329644C0FD0147
:10122000E20FF31F81939193225031092D933C9348
:101230003AC02091BE043091BF04232B41F4209189
:101240001A0230911B023093BF042093BE042091F8
:101250001802309119022115310541F42DB73EB71E
:1012600040911C0250911D02241B350BE091BE04DD
:10127000F091BF04E217F307A0F42E1B3F0B2817D1
:10128000390778F0AC014E5F5F4F2417350748F0FF
:101290004E0F5F1F5093BF044093BE048193919300
:1012A00002C0E0E0F0E0CF01DF91CF9108950F930D
:1012B0001F93CF93DF93009709F48CC0FC01329702
:1012C000138212820091C0041091C104011511050E
:1012D00081F420813181820F931F2091BE043091CF
:1012E000BF042817390779F5F093BF04E093BE04D3
:1012F00071C0D80140E050E0AE17BF0750F412961D
:101300002D913C911397AD012115310509F1D901BA
:10131000F3CF9D01DA013383228360817181860FCF
:10132000971F8217930769F4EC0128813981260FF2
:10133000371F2E5F3F4F318320838A819B819383A8
:101340008283452B29F4F093C104E093C00442C08A
:101350001396FC93EE931297ED01499159919E01DA
:10136000240F351FE217F30771F480819181840FF8
:10137000951F029611969C938E938281938113966A
:101380009C938E931297E0E0F0E0D80112968D9135
:101390009C911397009719F0F8018C01F6CF8D916D
:1013A0009C9198012E5F3F4F820F931F2091BE04A6
:1013B0003091BF042817390769F4309729F4109247
:1013C000C1041092C00402C0138212821093BF04A1
:1013D0000093BE04DF91CF911F910F9108956F92FA
:1013E0007F928F929F92AF92BF92CF92DF92EF92B5
:1013F000FF920F931F93CF93DF93EC01009781F43B
:10140000CB01DF91CF911F910F91FF90EF90DF9073
:10141000CF90BF90AF909F908F907F906F90B2CE03
:10142000FC01E60FF71F9C0122503109E217F30778
:1014300008F4A8C0D9010D911C9111970617170740
:10144000A8F00530110508F49BC0C8010497861761
:10145000970708F495C002501109061B170B01935A
:1014600011936D937C93CF0122DF8AC05B01A01A98
:10147000B10A4C01800E911EA091C004B091C1042C
:1014800040E050E0E12CF12C109709F44AC0A81577
:10149000B905D1F56D907C901197630182E0C80E7B
:1014A000D11CCA14DB0480F1A3014A195B096A014B
:1014B00082E0C80ED11C1296BC9012971396AC9184
:1014C000B5E0CB16D10440F0B282A38351834083B0
:1014D000D9016D937C930AC00E5F1F4FC301800F2B
:1014E000911FF90191838083EB2DFA2FE114F10410
:1014F00031F0D7011396FC93EE93129741C0F0930D
:10150000C104E093C0043CC08D919C911197481791
:10151000590708F4AC017D0112960D90BC91A02DE5
:10152000B3CF8091BE049091BF0488159905E1F472
:1015300046175707C8F48091180290911902009736
:1015400041F48DB79EB740911C0250911D02841B3F
:10155000950BE817F907B0F4F093BF04E093BE04CD
:10156000F901718360830CC0CB010CDE7C01009714
:1015700049F0A801BE0117D0CE0199DEC70104C011
:10158000CE0102C080E090E0DF91CF911F910F91DA
:10159000FF90EF90DF90CF90BF90AF909F908F9093
:1015A0007F906F900895FB01DC0102C001900D92C5
:1015B00041505040D8F70895FB01DC018D91019016
:1015C00080190110D9F3990B0895FB01DC010190FA
:1015D0000D920020E1F7089511E0C5E3D1E000E0AD
:1015E00005C0802FFE01C6DD2196011DC633D1073F
:0A15F00080E00807B1F7F894FFCF80
:1015FA00424344453E3F404131323341343536421D
:10160A00373839432A3023440000C20480000000DE
:10161A000000000076023702060200000200030002
:10162A000400050006000700080009000A000B0074
:10163A000C000D000E000F00100011001200130024
:10164A001400150016001700180019001A001B00D4
:10165A001C001D001E001F00200021002200230084
:10166A002400250026002700280029002A002B0034
:10167A002C002D002E002F003000310032003300E4
:10168A003130003131003132003133003134003130
:10169A003500313600313700313800313900323007
:1016AA000032310032320032330032340032350037
:1016BA0032360032370032380032390033300033E4
:1016CA0031003332003333003334003335003336DC
:1016DA0000333700333800333900343000343100F6
:1016EA0034320034330034340034350034360034B4
:0E16FA00370034380034390035300035310007
:00000001FF
